{
  "_format": "hh-sol-artifact-1",
  "contractName": "TuringToken",
  "sourceName": "contracts/TuringToken.sol",
  "abi": [
    {
      "inputs": [],
      "stateMutability": "nonpayable",
      "type": "constructor"
    },
    {
      "anonymous": false,
      "inputs": [
        {
          "indexed": true,
          "internalType": "address",
          "name": "account",
          "type": "address"
        },
        {
          "indexed": false,
          "internalType": "string",
          "name": "reason",
          "type": "string"
        }
      ],
      "name": "AcessoNegado",
      "type": "event"
    },
    {
      "anonymous": false,
      "inputs": [
        {
          "indexed": true,
          "internalType": "address",
          "name": "owner",
          "type": "address"
        },
        {
          "indexed": true,
          "internalType": "address",
          "name": "spender",
          "type": "address"
        },
        {
          "indexed": false,
          "internalType": "uint256",
          "name": "value",
          "type": "uint256"
        }
      ],
      "name": "Approval",
      "type": "event"
    },
    {
      "anonymous": false,
      "inputs": [
        {
          "indexed": true,
          "internalType": "address",
          "name": "account",
          "type": "address"
        },
        {
          "indexed": false,
          "internalType": "string",
          "name": "codiname",
          "type": "string"
        }
      ],
      "name": "CodinomeAutorizado",
      "type": "event"
    },
    {
      "anonymous": false,
      "inputs": [
        {
          "indexed": true,
          "internalType": "address",
          "name": "votante",
          "type": "address"
        },
        {
          "indexed": false,
          "internalType": "uint256",
          "name": "quantidade",
          "type": "uint256"
        }
      ],
      "name": "RecompensaEmitida",
      "type": "event"
    },
    {
      "anonymous": false,
      "inputs": [
        {
          "indexed": true,
          "internalType": "string",
          "name": "codiname",
          "type": "string"
        },
        {
          "indexed": true,
          "internalType": "address",
          "name": "receiver",
          "type": "address"
        },
        {
          "indexed": false,
          "internalType": "uint256",
          "name": "quantidade",
          "type": "uint256"
        }
      ],
      "name": "TokenEmitido",
      "type": "event"
    },
    {
      "anonymous": false,
      "inputs": [
        {
          "indexed": true,
          "internalType": "address",
          "name": "from",
          "type": "address"
        },
        {
          "indexed": true,
          "internalType": "address",
          "name": "to",
          "type": "address"
        },
        {
          "indexed": false,
          "internalType": "uint256",
          "name": "value",
          "type": "uint256"
        }
      ],
      "name": "Transfer",
      "type": "event"
    },
    {
      "anonymous": false,
      "inputs": [],
      "name": "VotacaoJaAtiva",
      "type": "event"
    },
    {
      "anonymous": false,
      "inputs": [],
      "name": "VotacaoJaDesativada",
      "type": "event"
    },
    {
      "anonymous": false,
      "inputs": [
        {
          "indexed": true,
          "internalType": "address",
          "name": "votante",
          "type": "address"
        },
        {
          "indexed": true,
          "internalType": "address",
          "name": "codinome",
          "type": "address"
        },
        {
          "indexed": false,
          "internalType": "uint256",
          "name": "quantidade",
          "type": "uint256"
        }
      ],
      "name": "VotoEmitido",
      "type": "event"
    },
    {
      "inputs": [
        {
          "internalType": "uint256",
          "name": "",
          "type": "uint256"
        }
      ],
      "name": "addresses",
      "outputs": [
        {
          "internalType": "address",
          "name": "",
          "type": "address"
        }
      ],
      "stateMutability": "view",
      "type": "function"
    },
    {
      "inputs": [
        {
          "internalType": "address",
          "name": "owner",
          "type": "address"
        },
        {
          "internalType": "address",
          "name": "spender",
          "type": "address"
        }
      ],
      "name": "allowance",
      "outputs": [
        {
          "internalType": "uint256",
          "name": "",
          "type": "uint256"
        }
      ],
      "stateMutability": "view",
      "type": "function"
    },
    {
      "inputs": [
        {
          "internalType": "address",
          "name": "spender",
          "type": "address"
        },
        {
          "internalType": "uint256",
          "name": "amount",
          "type": "uint256"
        }
      ],
      "name": "approve",
      "outputs": [
        {
          "internalType": "bool",
          "name": "",
          "type": "bool"
        }
      ],
      "stateMutability": "nonpayable",
      "type": "function"
    },
    {
      "inputs": [
        {
          "internalType": "address",
          "name": "account",
          "type": "address"
        }
      ],
      "name": "balanceOf",
      "outputs": [
        {
          "internalType": "uint256",
          "name": "",
          "type": "uint256"
        }
      ],
      "stateMutability": "view",
      "type": "function"
    },
    {
      "inputs": [
        {
          "internalType": "string",
          "name": "",
          "type": "string"
        }
      ],
      "name": "codinameTurings",
      "outputs": [
        {
          "internalType": "uint256",
          "name": "",
          "type": "uint256"
        }
      ],
      "stateMutability": "view",
      "type": "function"
    },
    {
      "inputs": [],
      "name": "decimals",
      "outputs": [
        {
          "internalType": "uint8",
          "name": "",
          "type": "uint8"
        }
      ],
      "stateMutability": "view",
      "type": "function"
    },
    {
      "inputs": [
        {
          "internalType": "address",
          "name": "spender",
          "type": "address"
        },
        {
          "internalType": "uint256",
          "name": "subtractedValue",
          "type": "uint256"
        }
      ],
      "name": "decreaseAllowance",
      "outputs": [
        {
          "internalType": "bool",
          "name": "",
          "type": "bool"
        }
      ],
      "stateMutability": "nonpayable",
      "type": "function"
    },
    {
      "inputs": [],
      "name": "getAllNames",
      "outputs": [
        {
          "internalType": "string[]",
          "name": "",
          "type": "string[]"
        }
      ],
      "stateMutability": "view",
      "type": "function"
    },
    {
      "inputs": [
        {
          "internalType": "string",
          "name": "codiname",
          "type": "string"
        }
      ],
      "name": "getTuringsForCodiname",
      "outputs": [
        {
          "internalType": "uint256",
          "name": "",
          "type": "uint256"
        }
      ],
      "stateMutability": "view",
      "type": "function"
    },
    {
      "inputs": [
        {
          "internalType": "address",
          "name": "spender",
          "type": "address"
        },
        {
          "internalType": "uint256",
          "name": "addedValue",
          "type": "uint256"
        }
      ],
      "name": "increaseAllowance",
      "outputs": [
        {
          "internalType": "bool",
          "name": "",
          "type": "bool"
        }
      ],
      "stateMutability": "nonpayable",
      "type": "function"
    },
    {
      "inputs": [
        {
          "internalType": "string",
          "name": "codiname",
          "type": "string"
        },
        {
          "internalType": "uint256",
          "name": "amount",
          "type": "uint256"
        }
      ],
      "name": "issueToken",
      "outputs": [],
      "stateMutability": "nonpayable",
      "type": "function"
    },
    {
      "inputs": [],
      "name": "name",
      "outputs": [
        {
          "internalType": "string",
          "name": "",
          "type": "string"
        }
      ],
      "stateMutability": "view",
      "type": "function"
    },
    {
      "inputs": [
        {
          "internalType": "uint256",
          "name": "",
          "type": "uint256"
        }
      ],
      "name": "names",
      "outputs": [
        {
          "internalType": "string",
          "name": "",
          "type": "string"
        }
      ],
      "stateMutability": "view",
      "type": "function"
    },
    {
      "inputs": [],
      "name": "owner",
      "outputs": [
        {
          "internalType": "address",
          "name": "",
          "type": "address"
        }
      ],
      "stateMutability": "view",
      "type": "function"
    },
    {
      "inputs": [],
      "name": "professora",
      "outputs": [
        {
          "internalType": "address",
          "name": "",
          "type": "address"
        }
      ],
      "stateMutability": "view",
      "type": "function"
    },
    {
      "inputs": [],
      "name": "symbol",
      "outputs": [
        {
          "internalType": "string",
          "name": "",
          "type": "string"
        }
      ],
      "stateMutability": "view",
      "type": "function"
    },
    {
      "inputs": [],
      "name": "totalSupply",
      "outputs": [
        {
          "internalType": "uint256",
          "name": "",
          "type": "uint256"
        }
      ],
      "stateMutability": "view",
      "type": "function"
    },
    {
      "inputs": [
        {
          "internalType": "address",
          "name": "recipient",
          "type": "address"
        },
        {
          "internalType": "uint256",
          "name": "amount",
          "type": "uint256"
        }
      ],
      "name": "transfer",
      "outputs": [
        {
          "internalType": "bool",
          "name": "",
          "type": "bool"
        }
      ],
      "stateMutability": "nonpayable",
      "type": "function"
    },
    {
      "inputs": [
        {
          "internalType": "address",
          "name": "sender",
          "type": "address"
        },
        {
          "internalType": "address",
          "name": "recipient",
          "type": "address"
        },
        {
          "internalType": "uint256",
          "name": "amount",
          "type": "uint256"
        }
      ],
      "name": "transferFrom",
      "outputs": [
        {
          "internalType": "bool",
          "name": "",
          "type": "bool"
        }
      ],
      "stateMutability": "nonpayable",
      "type": "function"
    },
    {
      "inputs": [
        {
          "internalType": "string",
          "name": "codiname",
          "type": "string"
        },
        {
          "internalType": "uint256",
          "name": "quantity",
          "type": "uint256"
        }
      ],
      "name": "vote",
      "outputs": [],
      "stateMutability": "nonpayable",
      "type": "function"
    },
    {
      "inputs": [],
      "name": "votingEnabled",
      "outputs": [
        {
          "internalType": "bool",
          "name": "",
          "type": "bool"
        }
      ],
      "stateMutability": "view",
      "type": "function"
    },
    {
      "inputs": [],
      "name": "votingOff",
      "outputs": [],
      "stateMutability": "nonpayable",
      "type": "function"
    },
    {
      "inputs": [],
      "name": "votingOn",
      "outputs": [],
      "stateMutability": "nonpayable",
      "type": "function"
    }
  ],
  "bytecode": "0x608060405273502542668af09fa7aea52174b9965a7799343df7600660006101000a81548173ffffffffffffffffffffffffffffffffffffffff021916908373ffffffffffffffffffffffffffffffffffffffff1602179055506040518061026001604052807370997970c51812dc3a010c7d01b50e0d17dc79c873ffffffffffffffffffffffffffffffffffffffff1673ffffffffffffffffffffffffffffffffffffffff168152602001733c44cdddb6a900fa2b585dd299e03d12fa4293bc73ffffffffffffffffffffffffffffffffffffffff1673ffffffffffffffffffffffffffffffffffffffff1681526020017390f79bf6eb2c4f870365e785982e1f101e93b90673ffffffffffffffffffffffffffffffffffffffff1673ffffffffffffffffffffffffffffffffffffffff1681526020017315d34aaf54267db7d7c367839aaf71a00a2c6a6573ffffffffffffffffffffffffffffffffffffffff1673ffffffffffffffffffffffffffffffffffffffff168152602001739965507d1a55bcc2695c58ba16fb37d819b0a4dc73ffffffffffffffffffffffffffffffffffffffff1673ffffffffffffffffffffffffffffffffffffffff16815260200173976ea74026e726554db657fa54763abd0c3a0aa973ffffffffffffffffffffffffffffffffffffffff1673ffffffffffffffffffffffffffffffffffffffff1681526020017314dc79964da2c08b23698b3d3cc7ca32193d995573ffffffffffffffffffffffffffffffffffffffff1673ffffffffffffffffffffffffffffffffffffffff1681526020017323618e81e3f5cdf7f54c3d65f7fbc0abf5b21e8f73ffffffffffffffffffffffffffffffffffffffff1673ffffffffffffffffffffffffffffffffffffffff16815260200173a0ee7a142d267c1f36714e4a8f75612f20a7972073ffffffffffffffffffffffffffffffffffffffff1673ffffffffffffffffffffffffffffffffffffffff16815260200173bcd4042de499d14e55001ccbb24a551f3b95409673ffffffffffffffffffffffffffffffffffffffff1673ffffffffffffffffffffffffffffffffffffffff1681526020017371be63f3384f5fb98995898a86b02fb2426c578873ffffffffffffffffffffffffffffffffffffffff1673ffffffffffffffffffffffffffffffffffffffff16815260200173fabb0ac9d68b0b445fb7357272ff202c5651694a73ffffffffffffffffffffffffffffffffffffffff1673ffffffffffffffffffffffffffffffffffffffff168152602001731cbd3b2770909d4e10f157cabc84c7264073c9ec73ffffffffffffffffffffffffffffffffffffffff1673ffffffffffffffffffffffffffffffffffffffff16815260200173df3e18d64bc6a983f673ab319ccae4f1a57c709773ffffffffffffffffffffffffffffffffffffffff1673ffffffffffffffffffffffffffffffffffffffff16815260200173cd3b766ccdd6ae721141f452c550ca635964ce7173ffffffffffffffffffffffffffffffffffffffff1673ffffffffffffffffffffffffffffffffffffffff168152602001732546bcd3c84621e976d8185a91a922ae77ecec3073ffffffffffffffffffffffffffffffffffffffff1673ffffffffffffffffffffffffffffffffffffffff16815260200173bda5747bfd65f08deb54cb465eb87d40e51b197e73ffffffffffffffffffffffffffffffffffffffff1673ffffffffffffffffffffffffffffffffffffffff16815260200173dd2fd4581271e230360230f9337d5c0430bf44c073ffffffffffffffffffffffffffffffffffffffff1673ffffffffffffffffffffffffffffffffffffffff168152602001738626f6940e2eb28930efb4cef49b2d1f2c9c119973ffffffffffffffffffffffffffffffffffffffff1673ffffffffffffffffffffffffffffffffffffffff168152506007906013620005a792919062000c66565b506040518061026001604052806040518060400160405280600581526020017f6e6f6d653100000000000000000000000000000000000000000000000000000081525081526020016040518060400160405280600581526020017f6e6f6d653200000000000000000000000000000000000000000000000000000081525081526020016040518060400160405280600581526020017f6e6f6d653300000000000000000000000000000000000000000000000000000081525081526020016040518060400160405280600581526020017f6e6f6d653400000000000000000000000000000000000000000000000000000081525081526020016040518060400160405280600581526020017f6e6f6d653500000000000000000000000000000000000000000000000000000081525081526020016040518060400160405280600581526020017f6e6f6d653600000000000000000000000000000000000000000000000000000081525081526020016040518060400160405280600581526020017f6e6f6d653700000000000000000000000000000000000000000000000000000081525081526020016040518060400160405280600581526020017f6e6f6d653800000000000000000000000000000000000000000000000000000081525081526020016040518060400160405280600581526020017f6e6f6d653900000000000000000000000000000000000000000000000000000081525081526020016040518060400160405280600681526020017f6e6f6d653130000000000000000000000000000000000000000000000000000081525081526020016040518060400160405280600681526020017f6e6f6d653131000000000000000000000000000000000000000000000000000081525081526020016040518060400160405280600681526020017f6e6f6d653132000000000000000000000000000000000000000000000000000081525081526020016040518060400160405280600681526020017f6e6f6d653133000000000000000000000000000000000000000000000000000081525081526020016040518060400160405280600681526020017f6e6f6d653134000000000000000000000000000000000000000000000000000081525081526020016040518060400160405280600681526020017f6e6f6d653135000000000000000000000000000000000000000000000000000081525081526020016040518060400160405280600681526020017f6e6f6d653136000000000000000000000000000000000000000000000000000081525081526020016040518060400160405280600681526020017f6e6f6d653137000000000000000000000000000000000000000000000000000081525081526020016040518060400160405280600681526020017f6e6f6d653138000000000000000000000000000000000000000000000000000081525081526020016040518060400160405280600681526020017f6e6f6d6531390000000000000000000000000000000000000000000000000000815250815250600890601362000a2592919062000cf5565b5034801562000a3357600080fd5b506040518060400160405280600b81526020017f547572696e67546f6b656e0000000000000000000000000000000000000000008152506040518060400160405280600381526020017f54544b0000000000000000000000000000000000000000000000000000000000815250816003908051906020019062000ab892919062000d5c565b50806004908051906020019062000ad192919062000d5c565b50505033600560006101000a81548173ffffffffffffffffffffffffffffffffffffffff021916908373ffffffffffffffffffffffffffffffffffffffff1602179055506001600c60006101000a81548160ff02191690831515021790555060005b60088054905081101562000c5f576007818154811062000b7c577f4e487b7100000000000000000000000000000000000000000000000000000000600052603260045260246000fd5b9060005260206000200160009054906101000a900473ffffffffffffffffffffffffffffffffffffffff1660096008838154811062000be4577f4e487b7100000000000000000000000000000000000000000000000000000000600052603260045260246000fd5b9060005260206000200160405162000bfd919062000f05565b908152602001604051809103902060006101000a81548173ffffffffffffffffffffffffffffffffffffffff021916908373ffffffffffffffffffffffffffffffffffffffff160217905550808062000c569062000f7e565b91505062000b33565b506200102a565b82805482825590600052602060002090810192821562000ce2579160200282015b8281111562000ce15782518260006101000a81548173ffffffffffffffffffffffffffffffffffffffff021916908373ffffffffffffffffffffffffffffffffffffffff1602179055509160200191906001019062000c87565b5b50905062000cf1919062000ded565b5090565b82805482825590600052602060002090810192821562000d49579160200282015b8281111562000d4857825182908051906020019062000d3792919062000d5c565b509160200191906001019062000d16565b5b50905062000d58919062000e0c565b5090565b82805462000d6a9062000f48565b90600052602060002090601f01602090048101928262000d8e576000855562000dda565b82601f1062000da957805160ff191683800117855562000dda565b8280016001018555821562000dda579182015b8281111562000dd957825182559160200191906001019062000dbc565b5b50905062000de9919062000ded565b5090565b5b8082111562000e0857600081600090555060010162000dee565b5090565b5b8082111562000e30576000818162000e26919062000e34565b5060010162000e0d565b5090565b50805462000e429062000f48565b6000825580601f1062000e56575062000e77565b601f01602090049060005260206000209081019062000e76919062000ded565b5b50565b6000815462000e898162000f48565b62000e95818662000f33565b9450600182166000811462000eb3576001811462000ec55762000efc565b60ff1983168652818601935062000efc565b62000ed08562000f1e565b60005b8381101562000ef45781548189015260018201915060208101905062000ed3565b838801955050505b50505092915050565b600062000f13828462000e7a565b915081905092915050565b60008190508160005260206000209050919050565b600081905092915050565b6000819050919050565b6000600282049050600182168062000f6157607f821691505b6020821081141562000f785762000f7762000ffb565b5b50919050565b600062000f8b8262000f3e565b91507fffffffffffffffffffffffffffffffffffffffffffffffffffffffffffffffff82141562000fc15762000fc062000fcc565b5b600182019050919050565b7f4e487b7100000000000000000000000000000000000000000000000000000000600052601160045260246000fd5b7f4e487b7100000000000000000000000000000000000000000000000000000000600052602260045260246000fd5b612d2c806200103a6000396000f3fe608060405234801561001057600080fd5b506004361061014d5760003560e01c80636c66247a116100c3578063a63858031161007c578063a6385803146103b8578063a9059cbb146103d4578063c683e0f414610404578063dd62ed3e14610420578063edf26d9b14610450578063fb825e5f146104805761014d565b80636c66247a146102ce57806370a08231146102ec5780638da5cb5b1461031c57806395d89b411461033a578063a457c2d714610358578063a55d9ace146103885761014d565b8063313ce56711610115578063313ce567146101f857806339509351146102165780634622ab031461024657806360a3ae0614610276578063640e11681461028057806367c30b521461029e5761014d565b806306fdde0314610152578063095ea7b31461017057806318160ddd146101a057806320949bb4146101be57806323b872dd146101c8575b600080fd5b61015a61049e565b6040516101679190612297565b60405180910390f35b61018a60048036038101906101859190611d73565b610530565b604051610197919061227c565b60405180910390f35b6101a861054e565b6040516101b591906124d9565b60405180910390f35b6101c6610558565b005b6101e260048036038101906101dd9190611d24565b610729565b6040516101ef919061227c565b60405180910390f35b610200610821565b60405161020d91906124f4565b60405180910390f35b610230600480360381019061022b9190611d73565b61082a565b60405161023d919061227c565b60405180910390f35b610260600480360381019061025b9190611e44565b6108d6565b60405161026d9190612297565b60405180910390f35b61027e610982565b005b610288610b52565b604051610295919061227c565b60405180910390f35b6102b860048036038101906102b39190611daf565b610b65565b6040516102c591906124d9565b60405180910390f35b6102d6610b93565b6040516102e3919061223f565b60405180910390f35b61030660048036038101906103019190611cbf565b610bb9565b60405161031391906124d9565b60405180910390f35b610324610c01565b604051610331919061223f565b60405180910390f35b610342610c27565b60405161034f9190612297565b60405180910390f35b610372600480360381019061036d9190611d73565b610cb9565b60405161037f919061227c565b60405180910390f35b6103a2600480360381019061039d9190611daf565b610da4565b6040516103af91906124d9565b60405180910390f35b6103d260048036038101906103cd9190611df0565b610dcc565b005b6103ee60048036038101906103e99190611d73565b611254565b6040516103fb919061227c565b60405180910390f35b61041e60048036038101906104199190611df0565b611272565b005b61043a60048036038101906104359190611ce8565b6114d0565b60405161044791906124d9565b60405180910390f35b61046a60048036038101906104659190611e44565b611557565b604051610477919061223f565b60405180910390f35b610488611596565b604051610495919061225a565b60405180910390f35b6060600380546104ad906126f4565b80601f01602080910402602001604051908101604052809291908181526020018280546104d9906126f4565b80156105265780601f106104fb57610100808354040283529160200191610526565b820191906000526020600020905b81548152906001019060200180831161050957829003601f168201915b5050505050905090565b600061054461053d61166f565b8484611677565b6001905092915050565b6000600254905090565b600560009054906101000a900473ffffffffffffffffffffffffffffffffffffffff1673ffffffffffffffffffffffffffffffffffffffff163373ffffffffffffffffffffffffffffffffffffffff16141580156106045750600660009054906101000a900473ffffffffffffffffffffffffffffffffffffffff1673ffffffffffffffffffffffffffffffffffffffff163373ffffffffffffffffffffffffffffffffffffffff1614155b15610690573373ffffffffffffffffffffffffffffffffffffffff167f461acf787441b6931c469a3d97353c45b7ab49026f86d7a00013e0d1c899e0a560405161064d90612419565b60405180910390a26040517f08c379a000000000000000000000000000000000000000000000000000000000815260040161068790612379565b60405180910390fd5b600c60009054906101000a900460ff16156106e0576040517f08c379a00000000000000000000000000000000000000000000000000000000081526004016106d790612339565b60405180910390fd5b6001600c60006101000a81548160ff0219169083151502179055507f17381efb8689dbf7d767cf5b053667f236427c34ff18df314b84f1ca33fa228460405160405180910390a1565b6000610736848484611842565b6000600160008673ffffffffffffffffffffffffffffffffffffffff1673ffffffffffffffffffffffffffffffffffffffff168152602001908152602001600020600061078161166f565b73ffffffffffffffffffffffffffffffffffffffff1673ffffffffffffffffffffffffffffffffffffffff16815260200190815260200160002054905082811015610801576040517f08c379a00000000000000000000000000000000000000000000000000000000081526004016107f890612399565b60405180910390fd5b6108158561080d61166f565b858403611677565b60019150509392505050565b60006012905090565b60006108cc61083761166f565b84846001600061084561166f565b73ffffffffffffffffffffffffffffffffffffffff1673ffffffffffffffffffffffffffffffffffffffff16815260200190815260200160002060008873ffffffffffffffffffffffffffffffffffffffff1673ffffffffffffffffffffffffffffffffffffffff168152602001908152602001600020546108c791906125d6565b611677565b6001905092915050565b600881815481106108e657600080fd5b906000526020600020016000915090508054610901906126f4565b80601f016020809104026020016040519081016040528092919081815260200182805461092d906126f4565b801561097a5780601f1061094f5761010080835404028352916020019161097a565b820191906000526020600020905b81548152906001019060200180831161095d57829003601f168201915b505050505081565b600560009054906101000a900473ffffffffffffffffffffffffffffffffffffffff1673ffffffffffffffffffffffffffffffffffffffff163373ffffffffffffffffffffffffffffffffffffffff1614158015610a2e5750600660009054906101000a900473ffffffffffffffffffffffffffffffffffffffff1673ffffffffffffffffffffffffffffffffffffffff163373ffffffffffffffffffffffffffffffffffffffff1614155b15610aba573373ffffffffffffffffffffffffffffffffffffffff167f461acf787441b6931c469a3d97353c45b7ab49026f86d7a00013e0d1c899e0a5604051610a7790612419565b60405180910390a26040517f08c379a0000000000000000000000000000000000000000000000000000000008152600401610ab190612379565b60405180910390fd5b600c60009054906101000a900460ff16610b09576040517f08c379a0000000000000000000000000000000000000000000000000000000008152600401610b0090612499565b60405180910390fd5b6000600c60006101000a81548160ff0219169083151502179055507fbd6a2dc31c2b2b8ea71756cb4799d3c016cf4502b7a2c285740764d61f7230e460405160405180910390a1565b600c60009054906101000a900460ff1681565b600b818051602081018201805184825260208301602085012081835280955050505050506000915090505481565b600660009054906101000a900473ffffffffffffffffffffffffffffffffffffffff1681565b60008060008373ffffffffffffffffffffffffffffffffffffffff1673ffffffffffffffffffffffffffffffffffffffff168152602001908152602001600020549050919050565b600560009054906101000a900473ffffffffffffffffffffffffffffffffffffffff1681565b606060048054610c36906126f4565b80601f0160208091040260200160405190810160405280929190818152602001828054610c62906126f4565b8015610caf5780601f10610c8457610100808354040283529160200191610caf565b820191906000526020600020905b815481529060010190602001808311610c9257829003601f168201915b5050505050905090565b60008060016000610cc861166f565b73ffffffffffffffffffffffffffffffffffffffff1673ffffffffffffffffffffffffffffffffffffffff16815260200190815260200160002060008573ffffffffffffffffffffffffffffffffffffffff1673ffffffffffffffffffffffffffffffffffffffff16815260200190815260200160002054905082811015610d85576040517f08c379a0000000000000000000000000000000000000000000000000000000008152600401610d7c90612479565b60405180910390fd5b610d99610d9061166f565b85858403611677565b600191505092915050565b6000600b82604051610db69190612228565b9081526020016040518091039020549050919050565b6000805b600780549050811015610e91573373ffffffffffffffffffffffffffffffffffffffff1660078281548110610e2e577f4e487b7100000000000000000000000000000000000000000000000000000000600052603260045260246000fd5b9060005260206000200160009054906101000a900473ffffffffffffffffffffffffffffffffffffffff1673ffffffffffffffffffffffffffffffffffffffff161415610e7e5760019150610e91565b8080610e8990612757565b915050610dd0565b5080610ed2576040517f08c379a0000000000000000000000000000000000000000000000000000000008152600401610ec990612359565b60405180910390fd5b600c60009054906101000a900460ff16610f21576040517f08c379a0000000000000000000000000000000000000000000000000000000008152600401610f1890612499565b60405180910390fd5b6000600984604051610f339190612228565b908152602001604051809103902060009054906101000a900473ffffffffffffffffffffffffffffffffffffffff169050600073ffffffffffffffffffffffffffffffffffffffff168173ffffffffffffffffffffffffffffffffffffffff161415610fd4576040517f08c379a0000000000000000000000000000000000000000000000000000000008152600401610fcb906123b9565b60405180910390fd5b3373ffffffffffffffffffffffffffffffffffffffff168173ffffffffffffffffffffffffffffffffffffffff161415611043576040517f08c379a000000000000000000000000000000000000000000000000000000000815260040161103a90612459565b60405180910390fd5b671bc16d674ec8000083111561108e576040517f08c379a000000000000000000000000000000000000000000000000000000000815260040161108590612439565b60405180910390fd5b600a8460405161109e9190612228565b908152602001604051809103902060009054906101000a900460ff16156110fa576040517f08c379a00000000000000000000000000000000000000000000000000000000081526004016110f1906122d9565b60405180910390fd5b6001600a8560405161110c9190612228565b908152602001604051809103902060006101000a81548160ff02191690831515021790555061113b8184611ac3565b670de0b6b3a76400008361114f919061262c565b600b8560405161115f9190612228565b9081526020016040518091039020600082825461117c91906125d6565b925050819055508073ffffffffffffffffffffffffffffffffffffffff163373ffffffffffffffffffffffffffffffffffffffff167fd2eb609aab5b106565116a35e1fee943eb4b7dd63c2020d37cdd916d1b547f0a856040516111e091906124d9565b60405180910390a360006702c68af0bb14000090506111ff3382611ac3565b3373ffffffffffffffffffffffffffffffffffffffff167f55b878afe030e322ab998b0c977b4a86e5987bb8bdb549a7a861c15c751536b88260405161124591906124d9565b60405180910390a25050505050565b600061126861126161166f565b8484611842565b6001905092915050565b600560009054906101000a900473ffffffffffffffffffffffffffffffffffffffff1673ffffffffffffffffffffffffffffffffffffffff163373ffffffffffffffffffffffffffffffffffffffff161415801561131e5750600660009054906101000a900473ffffffffffffffffffffffffffffffffffffffff1673ffffffffffffffffffffffffffffffffffffffff163373ffffffffffffffffffffffffffffffffffffffff1614155b156113aa573373ffffffffffffffffffffffffffffffffffffffff167f461acf787441b6931c469a3d97353c45b7ab49026f86d7a00013e0d1c899e0a560405161136790612419565b60405180910390a26040517f08c379a00000000000000000000000000000000000000000000000000000000081526004016113a190612379565b60405180910390fd5b60006009836040516113bc9190612228565b908152602001604051809103902060009054906101000a900473ffffffffffffffffffffffffffffffffffffffff169050600073ffffffffffffffffffffffffffffffffffffffff168173ffffffffffffffffffffffffffffffffffffffff16141561145d576040517f08c379a0000000000000000000000000000000000000000000000000000000008152600401611454906123b9565b60405180910390fd5b6114678183611ac3565b8073ffffffffffffffffffffffffffffffffffffffff168360405161148c9190612228565b60405180910390207fedfaaae621639ee8f06b77cb98ca1d6cfbf00a8430ca32641ba868f23e95f305846040516114c391906124d9565b60405180910390a3505050565b6000600160008473ffffffffffffffffffffffffffffffffffffffff1673ffffffffffffffffffffffffffffffffffffffff16815260200190815260200160002060008373ffffffffffffffffffffffffffffffffffffffff1673ffffffffffffffffffffffffffffffffffffffff16815260200190815260200160002054905092915050565b6007818154811061156757600080fd5b906000526020600020016000915054906101000a900473ffffffffffffffffffffffffffffffffffffffff1681565b60606008805480602002602001604051908101604052809291908181526020016000905b828210156116665783829060005260206000200180546115d9906126f4565b80601f0160208091040260200160405190810160405280929190818152602001828054611605906126f4565b80156116525780601f1061162757610100808354040283529160200191611652565b820191906000526020600020905b81548152906001019060200180831161163557829003601f168201915b5050505050815260200190600101906115ba565b50505050905090565b600033905090565b600073ffffffffffffffffffffffffffffffffffffffff168373ffffffffffffffffffffffffffffffffffffffff1614156116e7576040517f08c379a00000000000000000000000000000000000000000000000000000000081526004016116de906123f9565b60405180910390fd5b600073ffffffffffffffffffffffffffffffffffffffff168273ffffffffffffffffffffffffffffffffffffffff161415611757576040517f08c379a000000000000000000000000000000000000000000000000000000000815260040161174e906122f9565b60405180910390fd5b80600160008573ffffffffffffffffffffffffffffffffffffffff1673ffffffffffffffffffffffffffffffffffffffff16815260200190815260200160002060008473ffffffffffffffffffffffffffffffffffffffff1673ffffffffffffffffffffffffffffffffffffffff168152602001908152602001600020819055508173ffffffffffffffffffffffffffffffffffffffff168373ffffffffffffffffffffffffffffffffffffffff167f8c5be1e5ebec7d5bd14f71427d1e84f3dd0314c0f7b2291e5b200ac8c7c3b9258360405161183591906124d9565b60405180910390a3505050565b600073ffffffffffffffffffffffffffffffffffffffff168373ffffffffffffffffffffffffffffffffffffffff1614156118b2576040517f08c379a00000000000000000000000000000000000000000000000000000000081526004016118a9906123d9565b60405180910390fd5b600073ffffffffffffffffffffffffffffffffffffffff168273ffffffffffffffffffffffffffffffffffffffff161415611922576040517f08c379a0000000000000000000000000000000000000000000000000000000008152600401611919906122b9565b60405180910390fd5b61192d838383611c23565b60008060008573ffffffffffffffffffffffffffffffffffffffff1673ffffffffffffffffffffffffffffffffffffffff168152602001908152602001600020549050818110156119b3576040517f08c379a00000000000000000000000000000000000000000000000000000000081526004016119aa90612319565b60405180910390fd5b8181036000808673ffffffffffffffffffffffffffffffffffffffff1673ffffffffffffffffffffffffffffffffffffffff16815260200190815260200160002081905550816000808573ffffffffffffffffffffffffffffffffffffffff1673ffffffffffffffffffffffffffffffffffffffff1681526020019081526020016000206000828254611a4691906125d6565b925050819055508273ffffffffffffffffffffffffffffffffffffffff168473ffffffffffffffffffffffffffffffffffffffff167fddf252ad1be2c89b69c2b068fc378daa952ba7f163c4a11628f55a4df523b3ef84604051611aaa91906124d9565b60405180910390a3611abd848484611c28565b50505050565b600073ffffffffffffffffffffffffffffffffffffffff168273ffffffffffffffffffffffffffffffffffffffff161415611b33576040517f08c379a0000000000000000000000000000000000000000000000000000000008152600401611b2a906124b9565b60405180910390fd5b611b3f60008383611c23565b8060026000828254611b5191906125d6565b92505081905550806000808473ffffffffffffffffffffffffffffffffffffffff1673ffffffffffffffffffffffffffffffffffffffff1681526020019081526020016000206000828254611ba691906125d6565b925050819055508173ffffffffffffffffffffffffffffffffffffffff16600073ffffffffffffffffffffffffffffffffffffffff167fddf252ad1be2c89b69c2b068fc378daa952ba7f163c4a11628f55a4df523b3ef83604051611c0b91906124d9565b60405180910390a3611c1f60008383611c28565b5050565b505050565b505050565b6000611c40611c3b84612534565b61250f565b905082815260208101848484011115611c5857600080fd5b611c638482856126b2565b509392505050565b600081359050611c7a81612cc8565b92915050565b600082601f830112611c9157600080fd5b8135611ca1848260208601611c2d565b91505092915050565b600081359050611cb981612cdf565b92915050565b600060208284031215611cd157600080fd5b6000611cdf84828501611c6b565b91505092915050565b60008060408385031215611cfb57600080fd5b6000611d0985828601611c6b565b9250506020611d1a85828601611c6b565b9150509250929050565b600080600060608486031215611d3957600080fd5b6000611d4786828701611c6b565b9350506020611d5886828701611c6b565b9250506040611d6986828701611caa565b9150509250925092565b60008060408385031215611d8657600080fd5b6000611d9485828601611c6b565b9250506020611da585828601611caa565b9150509250929050565b600060208284031215611dc157600080fd5b600082013567ffffffffffffffff811115611ddb57600080fd5b611de784828501611c80565b91505092915050565b60008060408385031215611e0357600080fd5b600083013567ffffffffffffffff811115611e1d57600080fd5b611e2985828601611c80565b9250506020611e3a85828601611caa565b9150509250929050565b600060208284031215611e5657600080fd5b6000611e6484828501611caa565b91505092915050565b6000611e798383611f14565b905092915050565b611e8a8161265d565b82525050565b6000611e9b82612575565b611ea58185612598565b935083602082028501611eb785612565565b8060005b85811015611ef35784840389528151611ed48582611e6d565b9450611edf8361258b565b925060208a01995050600181019050611ebb565b50829750879550505050505092915050565b611f0e8161266f565b82525050565b6000611f1f82612580565b611f2981856125a9565b9350611f398185602086016126c1565b611f428161285c565b840191505092915050565b6000611f5882612580565b611f6281856125ba565b9350611f728185602086016126c1565b611f7b8161285c565b840191505092915050565b6000611f9182612580565b611f9b81856125cb565b9350611fab8185602086016126c1565b80840191505092915050565b6000611fc46023836125ba565b9150611fcf8261286d565b604082019050919050565b6000611fe7601d836125ba565b9150611ff2826128bc565b602082019050919050565b600061200a6022836125ba565b9150612015826128e5565b604082019050919050565b600061202d6026836125ba565b915061203882612934565b604082019050919050565b60006120506015836125ba565b915061205b82612983565b602082019050919050565b60006120736047836125ba565b915061207e826129ac565b606082019050919050565b6000612096602b836125ba565b91506120a182612a21565b604082019050919050565b60006120b96028836125ba565b91506120c482612a70565b604082019050919050565b60006120dc6012836125ba565b91506120e782612abf565b602082019050919050565b60006120ff6025836125ba565b915061210a82612ae8565b604082019050919050565b60006121226024836125ba565b915061212d82612b37565b604082019050919050565b6000612145601c836125ba565b915061215082612b86565b602082019050919050565b6000612168603b836125ba565b915061217382612baf565b604082019050919050565b600061218b601b836125ba565b915061219682612bfe565b602082019050919050565b60006121ae6025836125ba565b91506121b982612c27565b604082019050919050565b60006121d16019836125ba565b91506121dc82612c76565b602082019050919050565b60006121f4601f836125ba565b91506121ff82612c9f565b602082019050919050565b6122138161269b565b82525050565b612222816126a5565b82525050565b60006122348284611f86565b915081905092915050565b60006020820190506122546000830184611e81565b92915050565b600060208201905081810360008301526122748184611e90565b905092915050565b60006020820190506122916000830184611f05565b92915050565b600060208201905081810360008301526122b18184611f4d565b905092915050565b600060208201905081810360008301526122d281611fb7565b9050919050565b600060208201905081810360008301526122f281611fda565b9050919050565b6000602082019050818103600083015261231281611ffd565b9050919050565b6000602082019050818103600083015261233281612020565b9050919050565b6000602082019050818103600083015261235281612043565b9050919050565b6000602082019050818103600083015261237281612066565b9050919050565b6000602082019050818103600083015261239281612089565b9050919050565b600060208201905081810360008301526123b2816120ac565b9050919050565b600060208201905081810360008301526123d2816120cf565b9050919050565b600060208201905081810360008301526123f2816120f2565b9050919050565b6000602082019050818103600083015261241281612115565b9050919050565b6000602082019050818103600083015261243281612138565b9050919050565b600060208201905081810360008301526124528161215b565b9050919050565b600060208201905081810360008301526124728161217e565b9050919050565b60006020820190508181036000830152612492816121a1565b9050919050565b600060208201905081810360008301526124b2816121c4565b9050919050565b600060208201905081810360008301526124d2816121e7565b9050919050565b60006020820190506124ee600083018461220a565b92915050565b60006020820190506125096000830184612219565b92915050565b600061251961252a565b90506125258282612726565b919050565b6000604051905090565b600067ffffffffffffffff82111561254f5761254e61282d565b5b6125588261285c565b9050602081019050919050565b6000819050602082019050919050565b600081519050919050565b600081519050919050565b6000602082019050919050565b600082825260208201905092915050565b600082825260208201905092915050565b600082825260208201905092915050565b600081905092915050565b60006125e18261269b565b91506125ec8361269b565b9250827fffffffffffffffffffffffffffffffffffffffffffffffffffffffffffffffff03821115612621576126206127a0565b5b828201905092915050565b60006126378261269b565b91506126428361269b565b925082612652576126516127cf565b5b828204905092915050565b60006126688261267b565b9050919050565b60008115159050919050565b600073ffffffffffffffffffffffffffffffffffffffff82169050919050565b6000819050919050565b600060ff82169050919050565b82818337600083830152505050565b60005b838110156126df5780820151818401526020810190506126c4565b838111156126ee576000848401525b50505050565b6000600282049050600182168061270c57607f821691505b602082108114156127205761271f6127fe565b5b50919050565b61272f8261285c565b810181811067ffffffffffffffff8211171561274e5761274d61282d565b5b80604052505050565b60006127628261269b565b91507fffffffffffffffffffffffffffffffffffffffffffffffffffffffffffffffff821415612795576127946127a0565b5b600182019050919050565b7f4e487b7100000000000000000000000000000000000000000000000000000000600052601160045260246000fd5b7f4e487b7100000000000000000000000000000000000000000000000000000000600052601260045260246000fd5b7f4e487b7100000000000000000000000000000000000000000000000000000000600052602260045260246000fd5b7f4e487b7100000000000000000000000000000000000000000000000000000000600052604160045260246000fd5b6000601f19601f8301169050919050565b7f45524332303a207472616e7366657220746f20746865207a65726f206164647260008201527f6573730000000000000000000000000000000000000000000000000000000000602082015250565b7f566f6365206a6120766f746f75206e6573746520636f64696e6f6d652e000000600082015250565b7f45524332303a20617070726f766520746f20746865207a65726f20616464726560008201527f7373000000000000000000000000000000000000000000000000000000000000602082015250565b7f45524332303a207472616e7366657220616d6f756e742065786365656473206260008201527f616c616e63650000000000000000000000000000000000000000000000000000602082015250565b7f4120766f746163616f20657374612061746976612e0000000000000000000000600082015250565b7f41636573736f206e656761646f3a204170656e617320656e64657265636f732060008201527f6175746f72697a61646f7320706f64656d20657865637574617220657374612060208201527f66756e63616f2e00000000000000000000000000000000000000000000000000604082015250565b7f41636573736f206e656761646f3a20536f6d656e7465206f776e6572206f752060008201527f70726f666573736f72612e000000000000000000000000000000000000000000602082015250565b7f45524332303a207472616e7366657220616d6f756e742065786365656473206160008201527f6c6c6f77616e6365000000000000000000000000000000000000000000000000602082015250565b7f436f64696e6f6d6520696e76616c69646f2e0000000000000000000000000000600082015250565b7f45524332303a207472616e736665722066726f6d20746865207a65726f20616460008201527f6472657373000000000000000000000000000000000000000000000000000000602082015250565b7f45524332303a20617070726f76652066726f6d20746865207a65726f2061646460008201527f7265737300000000000000000000000000000000000000000000000000000000602082015250565b7f536f6d656e7465206f776e6572206f752070726f666573736f72612e00000000600082015250565b7f41207175616e746964616465206465207361547572696e6773206e616f20706f60008201527f646520736572206d61696f72207175652032202a2031305e31382e0000000000602082015250565b7f4e616f20706f646520766f74617220656d207369206d65736d6f2e0000000000600082015250565b7f45524332303a2064656372656173656420616c6c6f77616e63652062656c6f7760008201527f207a65726f000000000000000000000000000000000000000000000000000000602082015250565b7f4120766f746163616f206e616f20657374612061746976612e00000000000000600082015250565b7f45524332303a206d696e7420746f20746865207a65726f206164647265737300600082015250565b612cd18161265d565b8114612cdc57600080fd5b50565b612ce88161269b565b8114612cf357600080fd5b5056fea2646970667358221220e3d6b98455a04555a9c858633a34bf5042473596686c79510a279cc30b2cfd7364736f6c63430008040033",
  "linkReferences": {},
  "deployedLinkReferences": {}
}